:020000020000FC
:0200000032C00C
:0200040030C00A
:020008002EC008
:02000C002CC006
:020010002AC004
:0200140028C002
:0200180026C000
:02001C0024C0FE
:0200200022C0FC
:02002400AAC070
:020028001EC0F8
:02002C001CC0F6
:020030001AC0F4
:02003400A7C063
:0200380016C0F0
:02003C0014C0EE
:02004000B2C04C
:0200440010C0EA
:020048000EC0E8
:02004C000CC0E6
:020050000AC0E4
:02005400B3C037
:0200580006C0E0
:02005C0004C0DE
:020060001FC1BE
:1000640000C02098219A2298239A249A259A289AA3
:10007400299A2A9A2B982C982D983A9A3B9A429A24
:10008400439A3D983C98459844989FEF9BB990EFCC
:100094009AB990E094BD95E095BD91E090936E007F
:1000A40094E6292E96BD90E09093800093E090937F
:1000B400810090E09093820091E090936F009EEF16
:1000C400392E909385009BE0492E9093840090E014
:1000D4009093B00096E09093B10091E090937000FB
:1000E40099EB592E9093B20090E0692E90E8792E06
:1000F400C0E0D1E099E2999396E299939DE19993B6
:100104009EE099939CE199939DE1999397E2999349
:1001140099E2999394E299939993999399939993E2
:1001240099939993999390E690937C009FEB909385
:100134007A0094E090937B0093B19170990F990F9A
:10014400990F9EBB9CE09093B80098EF9093B900F0
:1001540095E09093BC00C0E1D1E09FE399939FEFB9
:1001640099939FEF9993A0E1B1E093E0892E9924AC
:10017400789400C0FFCF5092B200F499199A189560
:1001840030928500409284009F93AFB6789490E0BB
:1001940090936E00D6D091E090936E00AFBE9F9185
:1001A400189526BC9F9378940CD129D15ED195E201
:1001B4009093BC009F9118959F93CF93DF93AFB614
:1001C400F29935C0F29A91E690937C00909179006F
:1001D400903218F0983DB0F45CC0429A439AC8E05B
:1001E400D1E093E199939CE1999394E2999395E1F9
:1001F40099939EE099939FE099939DE1999394E25A
:10020400999347C0429A4398C8E0D1E093E1999307
:100214009CE1999394E299939BE1999392E1999348
:1002240090E1999391E199939DE1999332C0F29869
:1002340090E690937C0090917900903218F0983D6C
:10024400A0F427C04298439AC8E0D1E093E199937F
:100254009CE1999394E299939EE1999399E19993FE
:1002640094E299939993999314C042984398C8E05F
:10027400D1E093E199939CE1999394E299939DE061
:10028400999398E1999390E2999397E1999394E2E1
:100294009993AFBEDF91CF919F9118959F93AF93A0
:1002A400BF93AFB69091B900987F983069F09031C0
:1002B40091F09831C1F09032B1F0983219F1903345
:1002C40009F19833C1F138C098E19093BB0095E8E7
:1002D4009093BC0031C095E99093BC00A0E1B1E0DB
:1002E40093E0892E29C09D919093BB0095E890934B
:1002F400BC0022C095E99093BC00A0E1B1E093E07A
:10030400892E1AC08A9439F09D919093BB0095E888
:100314009093BC0011C095E99093BC00A0E1B1E0BA
:1003240093E0892E09C095E99093BC00A0E1B1E067
:1003340093E0892E01C000C0AFBEBF91AF919F91E1
:1003440018957F938F939F93CF93DF93EF93FF93AE
:10035400AFB62C9AD1E0C0E170E19A9188E0989F01
:10036400F5E0EAEDF10DE00D08F4F395E60D08F47F
:10037400F395949185E02B98979508F42B9A2D98F2
:100384002D9A8A95C1F77A9541F7972D88E02B9895
:10039400979508F42B9A2D982D9A8A95C1F7639412
:1003A400769418F490E8792E66242C982C9A2C983C
:1003B400AFBEFF91EF91DF91CF919F918F917F918C
:1003C40008959F93CF93DF93AFB693B192FB96F0CA
:1003D400C8E0D1E093E199939CE1999394E29993D5
:1003E4009CE0999395E1999392E199939CE0999378
:1003F40094E19993AFBEDF91CF919F9108959F931C
:10040400CF93DF93AFB69EB39870A9F0189928C024
:10041400F398C8E0D1E09CE1999390E2999394E237
:10042400999395E1999398E1999390E2999394E241
:100434009993999315C0189B13C0F39AC8E0D1E01F
:100444009CE1999390E2999394E2999391E1999321
:1004540092E1999390E1999391E1999394E299931C
:10046400AFBEDF91CF919F9108958F939F93CF93C8
:10047400DF93AFB69FE09BB900004B9B0BC04A9B38
:100484000FC0499B13C0489B17C0F49890E0909309
:1004940070007BC09FE39BB900004B9B13C02AC034
:1004A4009FE39BB900004A9B13C02AC09FE39BB9FA
:1004B4000000499B13C02AC09FE39BB90000489BDE
:1004C40013C02AC09FE79BB900004B9B39C032C0C0
:1004D4009FE79BB900004A9B35C02EC09FE79BB99C
:1004E4000000499B31C02AC09FE79BB90000489B8C
:1004F40037C034C09FED9BB900004B9B15C026C08C
:100504009FED9BB900004A9B11C00CC09FED9BB9A5
:100514000000499B0DC01CC09FED9BB90000489B87
:100524001BC018C090E01EC091E01CC092E01AC02D
:1005340093E018C094E016C095E014C096E012C091
:1005440097E010C098E00EC099E00CC09AE00AC091
:100554009BE008C09CE006C09DE004C09EE002C091
:100564009FE000C0C8E0D1E08BE089938EE18993DD
:100574008DE1899384E28993999384E289938993A1
:100584008993F49A91E090937000AFBEDF91CF917C
:100594009F918F9118959F93CF93DF93AFB6F9995D
:1005A40008959091370090FD089590E092BD90E0F9
:1005B400990D91BDD1E0C0E0C90D988190BDFA9A22
:1005C400F99A9394992D903109F49924AFBEDF914F
:1005D400CF919F9108950F09090909090F0001039B
:1005E4000501010101000F01010F08080F000F01AF
:1005F400010F01010F000909090F010101000F0892
:10060400080F01010F000F08080F09090F000F015F
:100614000102040404000F09090F09090F000F095E
:10062400090F01010F00060909090F0909000E0944
:10063400090E09090E0006090808080906000E0932
:10064400090909090E000F08080F08080F000F0810
:10065400080E080808000609080B0909060009091C
:10066400090F090909000E04040404040E00010121
:10067400010109090600090A0C0C0C0A0900080802
:10068400080808080F00090F0909090909000909E0
:100694000D0B0909090006090909090906000E09D3
:1006A40009090E080800060909090D0B06000E09C0
:1006B40009090E09090006090806010906000E04C5
:1006C40004040404040009090909090906000909C4
:1006D40009090906060009090909090F0900090998
:1006E4000606060909000A0A0A04040404000F01A4
:1006F400010204080F0000000000000000001F1F9A
:100704001F1F1F1F1F00000204080402000000082E
:10071400040204080000000A15110A040000001570
:060724000E1F0E1500007F
:00000001FF
