:020000020000FC
:0200000020C01E
:100040001EC0789401E000936E0000E004BD04E05F
:1000500005BDD9EBD6BD2098289A219A29983B9ABC
:10006000439800C003B000FA2EF4439800E00093D8
:100070006E0004C0439A01E000936E00F3CFDF935B
:10008000D9EBD6BD199ADF911895789401E00093C9
:100090006E003B9A4398E6CF00E004BD01E012E019
:1000A000012B05BD03E003E005BDFF93F6E0F6BDBF
:1000B0000F931F932F9308B118E0012708B9FF9100
:1000C0002F911F910F91189530E52FEF1FEF1A9583
:0C00D000F1F72A95D9F73A95C9F7089581
:00000001FF
