:020000020000FC
:0200000020C01E
:100040009BC0789401E000936E0000E004BD04E0E2
:1000500005BDD9EBD6BD219A29983A9A42983B9A88
:10006000439800C015C0FECF42980895429A089563
:1000700043980895439A089501E000936E0008950F
:1000800000E000936E000895F1DFF4DFF5DF0895DE
:100090000FE00BB900EF0AB900004B9B0BC04A9B65
:1000A00018C0499B25C0489B32C000C0DFDFE2DF9B
:1000B000E7DFD8CF00EF0BB90FE00AB900004F9B84
:1000C00035C04E9B37C04D9B39C04C9B39C0EECFDD
:1000D000C9CF00EF0BB90FE00AB900004F9B32C047
:1000E0004E9B34C04D9B34C04C9B34C0DFCFBACF45
:1000F00000EF0BB90FE00AB900004F9B2DC04E9BDB
:100100002DC04D9B2DC04C9B2DC0D0CFABCF00EF51
:100110000BB90FE00AB900004F9B26C04E9B26C0CA
:100120004D9B26C04C9B26C0C1CF9CCF9DDFA0DF3E
:10013000A7DF98CF99DF9EDFA3DF94CFA5DF92CF13
:10014000A3DF90CF93DF94DF9BDF8CCF9DDF8ACF3F
:100150009BDF88CF99DF86CF97DF84CF95DF82CF73
:1001600093DF80CF91DF7ECF8FDF7CCF8DDF7ACFA3
:100170008BDF78CF89DF76CFDF93D9EBD6BD199AA5
:04018000DF9118955E
:00000001FF
